S1230100CE0500FF03BACE0540FF03BC4FB703B4B703B5B703B6B703B7CE036ABDE07ECE4A
S12301200373BDE07ECE0386BDE07EBD013DBD0161BD02EBBD01C6BD035720F23FCE03D265
S1230140FF03BEFE03BAFF03B88640FE03BEE60008FF03BEFE03B8E70008FF03B84A26EB76
S123016039FE03BAC604A604A73CA638A700085A26F4FE03BA8604084A26FCC60E37A600C5
S1230180E60349564959E703A60056495646A7008604084A26FC335A26E3FE03BAA604E6E0
S12301A03F49564959E73FA63BE60046594656E700A607E63C46594656E73CA638E603496F
S12301C0564959E70339FE03BA8604B703C2084A26FCFF03BEFE03BC8604084A26FCFF034E
S12301E0C0FE03BE8604094A26FCBD029EB603B8B703C4B603B9B703C5F703C6FE03BEBD04
S1230200029EB603B8B703C7F703C8FE03BE8604084A26FCBD029EB603B8B703C9B603B906
S1230220B703CAF703CBFE03BEA600B703B88608365FCE03C4860836A6004924015CA70007
S123024008324A26F2C1022610FE03BEA600492414FE03C0A6000D2012C1032608FE03C0C6
S1230260A6000D2006FE03C0A6000C49A700FE03BEA60049A700324A26B6FE03BEB603B861
S1230280A70008FF03BEFE03C008FF03C0B603C24CB703C28B04814027037E01E13909A65B
S12302A000E601F703B94656F703B859A60249590839BD02C5CE03B4BDE0BFBDE0BFBDE010
S12302C0BFBDE0BF39B603B70C890119B703B7B603B6890019B703B6B603B5890019B703EB
S12302E0B5B603B4890019B703B439CE0373BDE07ECE03A5BDE07EBD02B2CE037ABDE07EC8
S1230300CE036FBDE07EFE03BAFF03BE7F03C2FE03BEA6002608CE0381BDE07E2015C608BC
S12303204936372404862A20028620BDE07533325A26EDB603C2C604840381032606CE0332
S1230340B1BDE07EFE03BE08FF03BEB603C24CB703C2814026B939FE03BAFF03B8FE03BCF8
S1230360FF03BAFE03B8FF03BC391B5B324A041B5B4A041B5B313B3148041B5B323B304899
S1230380041B5B384304205B434F4E57415927532047414D45204F46204C4946455D2047A7
S12303A0454E3A20041B5B3330430447454E3A20040D0A04000000000000000000000000D5
S12303C0000000000000000000000000000000000000000000002000200010001000700049
S12303E07000002000200010001000700070200020001000100070007000002000200010B9
S1150400001000700070000000000000000000000000F6
S9030000FC
