S11105000000000000000000000000000000E9
S1230400CE00FFFF0500CE0140FF0502BD0455FE0500FF0504CE1000FF0500CE0040FF05DD
S123042002BD046CFE0500FF0506CE005FFF0500CE0035FF0502BD0483FE0500FF0508CE21
S12304405555FF0500CE0033FF0502BD04B5FE0500FF050A3FF60501B60500FB0503B905A5
S123046002F70501B7050007B7050239F60501B60500F00503B20502F70501B7050007B7E0
S12304800502394F5FCE00107405027605032408FB0501B90500251337543346560926E8FF
S12304A0F70501B7050007B7050239CEFFFFFF0500FF0502394F5FCE0010780501790500EA
S12304C05949F7050DB7050CF00503B205022408F6050DB6050C20037C05010926DCF7054D
S10804E00DB7050C3905
S9030000FC
